{
  "contractName": "SubscriptionContract",
  "abi": [
    {
      "inputs": [
        {
          "internalType": "uint256",
          "name": "_sizeOfSubscription",
          "type": "uint256"
        },
        {
          "internalType": "address",
          "name": "_vaultAddress",
          "type": "address"
        },
        {
          "internalType": "contract ERC20",
          "name": "_token",
          "type": "address"
        }
      ],
      "stateMutability": "nonpayable",
      "type": "constructor"
    },
    {
      "anonymous": false,
      "inputs": [
        {
          "indexed": false,
          "internalType": "address",
          "name": "user",
          "type": "address"
        },
        {
          "indexed": false,
          "internalType": "uint256",
          "name": "amount",
          "type": "uint256"
        }
      ],
      "name": "Deposit",
      "type": "event"
    },
    {
      "anonymous": false,
      "inputs": [
        {
          "indexed": true,
          "internalType": "address",
          "name": "previousOwner",
          "type": "address"
        },
        {
          "indexed": true,
          "internalType": "address",
          "name": "newOwner",
          "type": "address"
        }
      ],
      "name": "OwnershipTransferred",
      "type": "event"
    },
    {
      "inputs": [],
      "name": "owner",
      "outputs": [
        {
          "internalType": "address",
          "name": "",
          "type": "address"
        }
      ],
      "stateMutability": "view",
      "type": "function",
      "constant": true
    },
    {
      "inputs": [],
      "name": "renounceOwnership",
      "outputs": [],
      "stateMutability": "nonpayable",
      "type": "function"
    },
    {
      "inputs": [
        {
          "internalType": "address",
          "name": "newOwner",
          "type": "address"
        }
      ],
      "name": "transferOwnership",
      "outputs": [],
      "stateMutability": "nonpayable",
      "type": "function"
    },
    {
      "inputs": [
        {
          "internalType": "address",
          "name": "user",
          "type": "address"
        }
      ],
      "name": "balanceOf",
      "outputs": [
        {
          "internalType": "uint256",
          "name": "",
          "type": "uint256"
        }
      ],
      "stateMutability": "view",
      "type": "function",
      "constant": true
    },
    {
      "inputs": [],
      "name": "getSizeOfSubscription",
      "outputs": [
        {
          "internalType": "uint256",
          "name": "",
          "type": "uint256"
        }
      ],
      "stateMutability": "view",
      "type": "function",
      "constant": true
    },
    {
      "inputs": [],
      "name": "getToken",
      "outputs": [
        {
          "internalType": "contract ERC20",
          "name": "",
          "type": "address"
        }
      ],
      "stateMutability": "view",
      "type": "function",
      "constant": true
    },
    {
      "inputs": [],
      "name": "getVaultAddress",
      "outputs": [
        {
          "internalType": "address",
          "name": "",
          "type": "address"
        }
      ],
      "stateMutability": "view",
      "type": "function",
      "constant": true
    },
    {
      "inputs": [
        {
          "internalType": "uint256",
          "name": "_sizeOfSubscription",
          "type": "uint256"
        }
      ],
      "name": "setSizeOfSubscription",
      "outputs": [],
      "stateMutability": "nonpayable",
      "type": "function"
    },
    {
      "inputs": [],
      "name": "getIsUserSubscribed",
      "outputs": [
        {
          "internalType": "bool",
          "name": "",
          "type": "bool"
        }
      ],
      "stateMutability": "view",
      "type": "function",
      "constant": true
    },
    {
      "inputs": [],
      "name": "getUserSubscriptionDate",
      "outputs": [
        {
          "internalType": "uint256",
          "name": "",
          "type": "uint256"
        }
      ],
      "stateMutability": "view",
      "type": "function",
      "constant": true
    },
    {
      "inputs": [],
      "name": "subscribe",
      "outputs": [],
      "stateMutability": "nonpayable",
      "type": "function"
    },
    {
      "inputs": [
        {
          "internalType": "address",
          "name": "user",
          "type": "address"
        }
      ],
      "name": "checkSubscription",
      "outputs": [],
      "stateMutability": "nonpayable",
      "type": "function"
    },
    {
      "inputs": [
        {
          "internalType": "address",
          "name": "user",
          "type": "address"
        }
      ],
      "name": "SubscriptionDate",
      "outputs": [],
      "stateMutability": "nonpayable",
      "type": "function"
    },
    {
      "inputs": [],
      "name": "cancelSubscription",
      "outputs": [],
      "stateMutability": "nonpayable",
      "type": "function"
    },
    {
      "inputs": [
        {
          "internalType": "uint256",
          "name": "amount",
          "type": "uint256"
        }
      ],
      "name": "deposit",
      "outputs": [],
      "stateMutability": "nonpayable",
      "type": "function"
    }
  ],
  "bytecode": "0x608060405234801561001057600080fd5b50604051610aa9380380610aa983398101604081905261002f916100a7565b600080546001600160a01b031916339081178255604051909182917f8be0079c531659141344cd1fd0a4f28419497f9722a3daafe3b4186f6b6457e0908290a350600192909255600380546001600160a01b039283166001600160a01b03199182161790915560058054929093169116179055610101565b6000806000606084860312156100bb578283fd5b8351925060208401516100cd816100e9565b60408501519092506100de816100e9565b809150509250925092565b6001600160a01b03811681146100fe57600080fd5b50565b610999806101106000396000f3fe608060405234801561001057600080fd5b50600436106100f55760003560e01c8063715018a611610097578063b6b55f2511610066578063b6b55f25146101e8578063b9a4c25b146101fb578063f2fde38b1461020e578063f39ac94f14610221576100f5565b8063715018a6146101bf5780638da5cb5b146101c75780638f449a05146101d857806395255c3e146101e0576100f5565b80632c66f017116100d35780632c66f017146101415780634f62647e1461016457806365cacaa41461017757806370a0823114610188576100f5565b80631c55a044146100fa57806321df0da71461010f57806324e9edb014610139575b600080fd5b61010d610108366004610883565b610229565b005b6005546001600160a01b03165b6040516001600160a01b0390911681526020015b60405180910390f35b61010d61027f565b610154600354600160a01b900460ff1690565b6040519015158152602001610130565b61010d610172366004610883565b610375565b6003546001600160a01b031661011c565b6101b1610196366004610883565b6001600160a01b031660009081526006602052604090205490565b604051908152602001610130565b61010d61041f565b6000546001600160a01b031661011c565b61010d61049c565b6004546101b1565b61010d6101f63660046108d1565b610607565b61010d6102093660046108d1565b61076a565b61010d61021c366004610883565b610799565b6001546101b1565b6001600160a01b03811660009081526006602052604090206002015460ff16151560011415610276576001600160a01b03811660009081526006602052604090206003015460045561027c565b60006004555b50565b336000908152600660205260409020600281015460ff1615156001141561027c576005546003546001546040516323b872dd60e01b81526001600160a01b03928316600482015233602482015260448101919091529116906323b872dd90606401602060405180830381600087803b1580156102fa57600080fd5b505af115801561030e573d6000803e3d6000fd5b505050506040513d601f19601f8201168201806040525081019061033291906108b1565b50600154816000016000828254610349919061091e565b90915550506001546002805460009061036390849061091e565b9091555050600201805460ff19169055565b6001600160a01b03811660009081526006602052604090206002015460ff1615156001141561040f576001600160a01b0381166000908152600660205260409020600401544211156103f6576003805460ff60a01b191690556001600160a01b0381166000908152600660205260409020600201805460ff1916905561040a565b6003805460ff60a01b1916600160a01b1790555b61027c565b6003805460ff60a01b1916905550565b6000546001600160a01b031633146104525760405162461bcd60e51b8152600401610449906108e9565b60405180910390fd5b600080546040516001600160a01b03909116907f8be0079c531659141344cd1fd0a4f28419497f9722a3daafe3b4186f6b6457e0908390a3600080546001600160a01b0319169055565b336000908152600660209081526040808320815160608101835293845242928401839052908301829052600281018054600383018490556004830184905560ff1916600117905591906104f29062278d0061091e565b60048301556001546002805460009061050c908490610936565b909155505060015482548390600090610526908490610936565b909155505060055460035460015460405163a9059cbb60e01b81526001600160a01b039283166004820152602481019190915291169063a9059cbb90604401602060405180830381600087803b15801561057f57600080fd5b505af1158015610593573d6000803e3d6000fd5b505050506040513d601f19601f820116820180604052508101906105b791906108b1565b6106035760405162461bcd60e51b815260206004820181905260248201527f5472616e7366657220746f207661756c742061646472657373206661696c65646044820152606401610449565b5050565b336000818152600660205260409081902060055491516323b872dd60e01b8152600481019390935230602484015260448301849052916001600160a01b03909116906323b872dd90606401602060405180830381600087803b15801561066c57600080fd5b505af1158015610680573d6000803e3d6000fd5b505050506040513d601f19601f820116820180604052508101906106a491906108b1565b6106f05760405162461bcd60e51b815260206004820181905260248201527f557365722063616e6e6f74206163686965766520746865207472616e736665726044820152606401610449565b80546106fd90839061091e565b81556002805483919060009061071490849061091e565b9091555050600281015460ff1661072d5761072d61049c565b60408051338152602081018490527fe1fffcc4923d04b559f4d29a8bfc6cda04eb5b0d3c460751c2402c5c5cc9109c910160405180910390a15050565b6000546001600160a01b031633146107945760405162461bcd60e51b8152600401610449906108e9565b600155565b6000546001600160a01b031633146107c35760405162461bcd60e51b8152600401610449906108e9565b6001600160a01b0381166108285760405162461bcd60e51b815260206004820152602660248201527f4f776e61626c653a206e6577206f776e657220697320746865207a65726f206160448201526564647265737360d01b6064820152608401610449565b600080546040516001600160a01b03808516939216917f8be0079c531659141344cd1fd0a4f28419497f9722a3daafe3b4186f6b6457e091a3600080546001600160a01b0319166001600160a01b0392909216919091179055565b600060208284031215610894578081fd5b81356001600160a01b03811681146108aa578182fd5b9392505050565b6000602082840312156108c2578081fd5b815180151581146108aa578182fd5b6000602082840312156108e2578081fd5b5035919050565b6020808252818101527f4f776e61626c653a2063616c6c6572206973206e6f7420746865206f776e6572604082015260600190565b600082198211156109315761093161094d565b500190565b6000828210156109485761094861094d565b500390565b634e487b7160e01b600052601160045260246000fdfea2646970667358221220f0565c3faf10d74842c9b76d800b72a87e10a00a6efef84336af851e87d8b0fc64736f6c63430008030033",
  "immutableReferences": {},
  "source": "pragma solidity ^0.8.3;\n\nimport \"@openzeppelin/contracts/utils/Context.sol\";\nimport \"@openzeppelin/contracts/access/Ownable.sol\";\nimport \"@openzeppelin/contracts/token/ERC20/SafeERC20.sol\";\nimport \"./token/IBEP20.sol\";\nimport \"@openzeppelin/contracts/token/ERC20/ERC20.sol\";\n\ncontract SubscriptionContract is Context, Ownable {\n\n  uint256 private sizeOfSubscription;\n  uint256 private totalSupply;\n  address private vaultAddress;\n  bool private isUserSubscribed;\n  uint256 private userSubscriptionDate;\n  ERC20  token;\n  mapping (address => User) userInfo;\n\n  struct User {\n    uint256 balance;\n    address userAddr;\n    Subscription subInfo;\n  }\n\n  struct Subscription {\n    bool status;\n    uint256 dateOfSubscription;\n    uint256 expiry;\n  }\n\n  constructor(uint256 _sizeOfSubscription, address _vaultAddress, ERC20 _token) {\n    sizeOfSubscription = _sizeOfSubscription;\n    vaultAddress = _vaultAddress;\n    token = _token;\n  }\n\n  function balanceOf(address user) public view virtual returns (uint256) {\n    return userInfo[user].balance;\n  }\n\n  function getSizeOfSubscription() public view virtual  returns (uint256) {\n    return sizeOfSubscription;\n  }\n\n  function getToken() public view virtual  returns (ERC20) {\n    return token;\n  }\n\n  function getVaultAddress() public view virtual  returns (address) {\n    return vaultAddress;\n  }\n\n  function setSizeOfSubscription(uint256 _sizeOfSubscription) public onlyOwner{\n    sizeOfSubscription = _sizeOfSubscription;\n  }\n\n  function getIsUserSubscribed() public view returns (bool) {\n    return isUserSubscribed;\n  }\n  function getUserSubscriptionDate() public view returns (uint256) {\n    return userSubscriptionDate;\n  }\n\n  function subscribe() public {\n    User storage user = userInfo[msg.sender];\n    Subscription memory subInfo = Subscription(false, block.timestamp, block.timestamp);\n    user.subInfo = subInfo;\n    user.subInfo.status = true;\n    user.subInfo.dateOfSubscription = block.timestamp;\n    user.subInfo.expiry = block.timestamp + 30 days;\n    totalSupply -= sizeOfSubscription;\n    user.balance -= sizeOfSubscription;\n    require(token.transfer(vaultAddress, sizeOfSubscription), \"Transfer to vault address failed\");\n  }\n\n  function checkSubscription(address user) public {        \n    if (userInfo[user].subInfo.status == true) {\n      if(userInfo[user].subInfo.expiry < block.timestamp ) {\n        isUserSubscribed = false;\n        userInfo[user].subInfo.status = false;\n      } else {\n        isUserSubscribed = true;\n      }\n    } else {\n      isUserSubscribed = false;\n    }\n  }\n\n  function SubscriptionDate(address user) public {\n    if (userInfo[user].subInfo.status == true) {\n      userSubscriptionDate = userInfo[user].subInfo.dateOfSubscription;\n    } else {\n      userSubscriptionDate = 0;\n    }\n  }\n\n  function cancelSubscription() public {\n    User storage user = userInfo[msg.sender];\n\n    if(user.subInfo.status == true) {\n      token.transferFrom(vaultAddress, msg.sender, sizeOfSubscription);\n      user.balance += sizeOfSubscription;\n      totalSupply += sizeOfSubscription;\n      user.subInfo.status = false;\n    }\n  }\n\n  event Deposit(address user, uint256 amount);\n\n\n  function deposit(uint256 amount) external {\n    User storage user = userInfo[msg.sender];\n    \n    require(token.transferFrom(msg.sender, address(this), amount), \"User cannot achieve the transfer\");\n    user.balance = user.balance + amount;\n    totalSupply += amount;\n    if(!user.subInfo.status) {\n      subscribe();\n    }\n    emit Deposit(msg.sender, amount);\n  }\n}",
  "sourcePath": "/mnt/d/Work/SubscriptionSmartContract/SubscriptionSmartContract/solidity/contracts/SubscriptionContract.sol",
  "compiler": {
    "name": "solc",
    "version": "0.8.3+commit.8d00100c.Emscripten.clang"
  },
  "schemaVersion": "3.3.4",
  "updatedAt": "2021-04-18T10:52:44.001Z",
  "networkType": "ethereum",
  "devdoc": {
    "kind": "dev",
    "methods": {
      "owner()": {
        "details": "Returns the address of the current owner."
      },
      "renounceOwnership()": {
        "details": "Leaves the contract without owner. It will not be possible to call `onlyOwner` functions anymore. Can only be called by the current owner. NOTE: Renouncing ownership will leave the contract without an owner, thereby removing any functionality that is only available to the owner."
      },
      "transferOwnership(address)": {
        "details": "Transfers ownership of the contract to a new account (`newOwner`). Can only be called by the current owner."
      }
    },
    "version": 1
  },
  "userdoc": {
    "kind": "user",
    "methods": {},
    "version": 1
  }
}