{
  "contractName": "SubscriptionContract",
  "abi": [
    {
      "inputs": [
        {
          "internalType": "uint256",
          "name": "_sizeOfSubscription",
          "type": "uint256"
        },
        {
          "internalType": "address",
          "name": "_vaultAddress",
          "type": "address"
        },
        {
          "internalType": "contract ERC20",
          "name": "_token",
          "type": "address"
        }
      ],
      "stateMutability": "nonpayable",
      "type": "constructor"
    },
    {
      "anonymous": false,
      "inputs": [
        {
          "indexed": false,
          "internalType": "address",
          "name": "user",
          "type": "address"
        },
        {
          "indexed": false,
          "internalType": "uint256",
          "name": "amount",
          "type": "uint256"
        }
      ],
      "name": "Deposit",
      "type": "event"
    },
    {
      "anonymous": false,
      "inputs": [
        {
          "indexed": true,
          "internalType": "address",
          "name": "previousOwner",
          "type": "address"
        },
        {
          "indexed": true,
          "internalType": "address",
          "name": "newOwner",
          "type": "address"
        }
      ],
      "name": "OwnershipTransferred",
      "type": "event"
    },
    {
      "inputs": [],
      "name": "owner",
      "outputs": [
        {
          "internalType": "address",
          "name": "",
          "type": "address"
        }
      ],
      "stateMutability": "view",
      "type": "function",
      "constant": true
    },
    {
      "inputs": [],
      "name": "renounceOwnership",
      "outputs": [],
      "stateMutability": "nonpayable",
      "type": "function"
    },
    {
      "inputs": [],
      "name": "sizeOfSubscription",
      "outputs": [
        {
          "internalType": "uint256",
          "name": "",
          "type": "uint256"
        }
      ],
      "stateMutability": "view",
      "type": "function",
      "constant": true
    },
    {
      "inputs": [],
      "name": "token",
      "outputs": [
        {
          "internalType": "contract ERC20",
          "name": "",
          "type": "address"
        }
      ],
      "stateMutability": "view",
      "type": "function",
      "constant": true
    },
    {
      "inputs": [
        {
          "internalType": "address",
          "name": "newOwner",
          "type": "address"
        }
      ],
      "name": "transferOwnership",
      "outputs": [],
      "stateMutability": "nonpayable",
      "type": "function"
    },
    {
      "inputs": [
        {
          "internalType": "address",
          "name": "",
          "type": "address"
        }
      ],
      "name": "userInfo",
      "outputs": [
        {
          "internalType": "uint256",
          "name": "balance",
          "type": "uint256"
        },
        {
          "internalType": "address",
          "name": "userAddr",
          "type": "address"
        },
        {
          "components": [
            {
              "internalType": "bool",
              "name": "status",
              "type": "bool"
            },
            {
              "internalType": "uint256",
              "name": "dateOfSubscription",
              "type": "uint256"
            }
          ],
          "internalType": "struct SubscriptionContract.Subscription",
          "name": "subInfo",
          "type": "tuple"
        }
      ],
      "stateMutability": "view",
      "type": "function",
      "constant": true
    },
    {
      "inputs": [],
      "name": "vaultAddress",
      "outputs": [
        {
          "internalType": "address",
          "name": "",
          "type": "address"
        }
      ],
      "stateMutability": "view",
      "type": "function",
      "constant": true
    },
    {
      "inputs": [
        {
          "internalType": "address",
          "name": "user",
          "type": "address"
        }
      ],
      "name": "balanceOf",
      "outputs": [
        {
          "internalType": "uint256",
          "name": "",
          "type": "uint256"
        }
      ],
      "stateMutability": "view",
      "type": "function",
      "constant": true
    },
    {
      "inputs": [
        {
          "internalType": "uint256",
          "name": "_sizeOfSubscription",
          "type": "uint256"
        }
      ],
      "name": "setSizeOfSubscription",
      "outputs": [],
      "stateMutability": "nonpayable",
      "type": "function"
    },
    {
      "inputs": [],
      "name": "subscribe",
      "outputs": [],
      "stateMutability": "nonpayable",
      "type": "function"
    },
    {
      "inputs": [
        {
          "internalType": "address",
          "name": "user",
          "type": "address"
        }
      ],
      "name": "hasSubscriptionExpired",
      "outputs": [
        {
          "internalType": "bool",
          "name": "",
          "type": "bool"
        }
      ],
      "stateMutability": "view",
      "type": "function",
      "constant": true
    },
    {
      "inputs": [
        {
          "internalType": "address",
          "name": "user",
          "type": "address"
        }
      ],
      "name": "updateSubscription",
      "outputs": [],
      "stateMutability": "nonpayable",
      "type": "function"
    },
    {
      "inputs": [],
      "name": "cancelSubscription",
      "outputs": [],
      "stateMutability": "nonpayable",
      "type": "function"
    },
    {
      "inputs": [
        {
          "internalType": "uint256",
          "name": "amount",
          "type": "uint256"
        }
      ],
      "name": "deposit",
      "outputs": [],
      "stateMutability": "nonpayable",
      "type": "function"
    }
  ],
  "bytecode": "0x608060405234801561001057600080fd5b50604051610a56380380610a5683398101604081905261002f916100a7565b600080546001600160a01b031916339081178255604051909182917f8be0079c531659141344cd1fd0a4f28419497f9722a3daafe3b4186f6b6457e0908290a350600192909255600280546001600160a01b039283166001600160a01b03199182161790915560038054929093169116179055610101565b6000806000606084860312156100bb578283fd5b8351925060208401516100cd816100e9565b60408501519092506100de816100e9565b809150509250925092565b6001600160a01b03811681146100fe57600080fd5b50565b610946806101106000396000f3fe608060405234801561001057600080fd5b50600436106100ea5760003560e01c80638f449a051161008c578063b9a4c25b11610066578063b9a4c25b1461024e578063e4f7b01314610261578063f2fde38b14610274578063fc0c546a14610287576100ea565b80638f449a051461022a578063a179891914610232578063b6b55f251461023b576100ea565b806370a08231116100c857806370a08231146101b7578063715018a6146101ee578063777e4d85146101f65780638da5cb5b14610219576100ea565b80631959a002146100ef57806324e9edb014610182578063430bf08a1461018c575b600080fd5b6101486100fd366004610830565b600460209081526000918252604091829020805460018201548451808601909552600283015460ff16151585526003909201549284019290925290916001600160a01b039091169083565b604080519384526001600160a01b039092166020808501919091528151151592840192909252015160608201526080015b60405180910390f35b61018a61029a565b005b60025461019f906001600160a01b031681565b6040516001600160a01b039091168152602001610179565b6101e06101c5366004610830565b6001600160a01b031660009081526004602052604090205490565b604051908152602001610179565b61018a6102cb565b610209610204366004610830565b610348565b6040519015158152602001610179565b6000546001600160a01b031661019f565b61018a61037a565b6101e060015481565b61018a61024936600461087e565b6104fa565b61018a61025c36600461087e565b610648565b61018a61026f366004610830565b610677565b61018a610282366004610830565b610746565b60035461019f906001600160a01b031681565b336000908152600460205260409020600281015460ff161515600114156102c85760028101805460ff191690555b50565b6000546001600160a01b031633146102fe5760405162461bcd60e51b81526004016102f590610896565b60405180910390fd5b600080546040516001600160a01b03909116907f8be0079c531659141344cd1fd0a4f28419497f9722a3daafe3b4186f6b6457e0908390a3600080546001600160a01b0319169055565b6001600160a01b03811660009081526004602052604081206003015442906103739062278d006108cb565b1092915050565b60405180606001604052806001546103a7336001600160a01b031660009081526004602052604090205490565b6103b191906108e3565b815233602080830182905260408051808201825260018082524282850152948201526000928352600480835292819020855181558583015181860180546001600160a01b0319166001600160a01b039283161790559582015180516002808401805460ff1916921515929092179091559301516003918201555491549354905163a9059cbb60e01b81529385169284019290925260248301919091529091169063a9059cbb90604401602060405180830381600087803b15801561047457600080fd5b505af1158015610488573d6000803e3d6000fd5b505050506040513d601f19601f820116820180604052508101906104ac919061085e565b6104f85760405162461bcd60e51b815260206004820181905260248201527f5472616e7366657220746f207661756c742061646472657373206661696c656460448201526064016102f5565b565b6003546040516323b872dd60e01b8152336004820152306024820152604481018390526001600160a01b03909116906323b872dd90606401602060405180830381600087803b15801561054c57600080fd5b505af1158015610560573d6000803e3d6000fd5b505050506040513d601f19601f82011682018060405250810190610584919061085e565b6105d05760405162461bcd60e51b815260206004820181905260248201527f557365722063616e6e6f74206163686965766520746865207472616e7366657260448201526064016102f5565b33600090815260046020526040902080546105ec9083906108cb565b81556105f733610677565b600281015460ff1661060b5761060b61037a565b60408051338152602081018490527fe1fffcc4923d04b559f4d29a8bfc6cda04eb5b0d3c460751c2402c5c5cc9109c910160405180910390a15050565b6000546001600160a01b031633146106725760405162461bcd60e51b81526004016102f590610896565b600155565b61068081610348565b156102c8576001600160a01b03811660009081526004602052604090206002015460ff1680156106c957506001546001600160a01b038216600090815260046020526040902054115b15610722576001546001600160a01b038216600090815260046020526040812080549091906106f99084906108e3565b90915550506001600160a01b0381166000908152600460205260409020426003909101556102c8565b6001600160a01b03166000908152600460205260409020600201805460ff19169055565b6000546001600160a01b031633146107705760405162461bcd60e51b81526004016102f590610896565b6001600160a01b0381166107d55760405162461bcd60e51b815260206004820152602660248201527f4f776e61626c653a206e6577206f776e657220697320746865207a65726f206160448201526564647265737360d01b60648201526084016102f5565b600080546040516001600160a01b03808516939216917f8be0079c531659141344cd1fd0a4f28419497f9722a3daafe3b4186f6b6457e091a3600080546001600160a01b0319166001600160a01b0392909216919091179055565b600060208284031215610841578081fd5b81356001600160a01b0381168114610857578182fd5b9392505050565b60006020828403121561086f578081fd5b81518015158114610857578182fd5b60006020828403121561088f578081fd5b5035919050565b6020808252818101527f4f776e61626c653a2063616c6c6572206973206e6f7420746865206f776e6572604082015260600190565b600082198211156108de576108de6108fa565b500190565b6000828210156108f5576108f56108fa565b500390565b634e487b7160e01b600052601160045260246000fdfea26469706673582212204187de1af97e2b1eda5e888f154def64df5f13709f26be2c180113e49e52b4f764736f6c63430008030033",
  "immutableReferences": {},
  "source": "pragma solidity ^0.8.3;\n\nimport \"@openzeppelin/contracts/utils/Context.sol\";\nimport \"@openzeppelin/contracts/access/Ownable.sol\";\nimport \"@openzeppelin/contracts/token/ERC20/SafeERC20.sol\";\nimport \"@openzeppelin/contracts/token/ERC20/ERC20.sol\";\nimport \"./token/IBEP20.sol\";\n\ncontract SubscriptionContract is Context, Ownable {\n  uint256 public sizeOfSubscription;\n  address public vaultAddress;\n  ERC20 public token;\n  mapping (address => User) public userInfo;\n\n  struct User {\n    uint256 balance;\n    address userAddr;\n    Subscription subInfo;\n  }\n\n  struct Subscription {\n    // is true if user is subscribed else is false\n    bool status;\n    uint256 dateOfSubscription;\n  }\n\n  constructor(uint256 _sizeOfSubscription, address _vaultAddress, ERC20 _token) {\n    sizeOfSubscription = _sizeOfSubscription;\n    vaultAddress = _vaultAddress;\n    token = _token;\n  }\n\n  /**\n   * @notice Returns the balance of a user in the contract\n   * @param user The address of a user\n   */\n  function balanceOf(address user) public view returns (uint256) {\n    return userInfo[user].balance;\n  }\n\n  /**\n   * @notice The owner of the contract sets the value of the subscription\n   * @param _sizeOfSubscription value of the subscription\n   */\n  function setSizeOfSubscription(uint256 _sizeOfSubscription) public onlyOwner {\n    sizeOfSubscription = _sizeOfSubscription;\n  }\n\n  /**\n   * @notice Subscribes the user that made the call\n   */\n  function subscribe() public {\n    userInfo[msg.sender] = User({\n      subInfo: Subscription({\n        status: true,\n        dateOfSubscription: block.timestamp\n      }),\n      userAddr: msg.sender,\n      balance: balanceOf(msg.sender) - sizeOfSubscription\n    });\n\n    require(token.transfer(vaultAddress, sizeOfSubscription), \"Transfer to vault address failed\");\n  }\n\n  /**\n   * @notice Checks if subscription has expire\n   * @param user the address of a user\n   */\n  function hasSubscriptionExpired(address user) public view returns (bool) {\n    return userInfo[user].subInfo.dateOfSubscription + 30 days < block.timestamp;\n  }\n\n  /**\n   * @notice If subscription has expire and user has money updates his subscription, otherwise makes\n   * his subscription status false\n   * @param user the address of a user\n   */\n  function updateSubscription(address user) public {\n    if (hasSubscriptionExpired(user)) {\n      if(userInfo[user].subInfo.status && balanceOf(user) > sizeOfSubscription) {\n        userInfo[user].balance -= sizeOfSubscription;\n        userInfo[user].subInfo.dateOfSubscription = block.timestamp;\n      } else {\n        userInfo[user].subInfo.status = false;\n      }\n    }\n  }\n\n  /**\n   * @notice Cancels users subscription \n   */\n  function cancelSubscription() public {\n    User storage user = userInfo[msg.sender];\n\n    if(user.subInfo.status == true) {\n      user.subInfo.status = false;\n    }\n  }\n\n  event Deposit(address user, uint256 amount);\n\n  /**\n   * @notice Updates if subscription has expired, calls subscribe if user is not subscribe and transfer the tokens\n   * from user to the contract \n   * @param amount the value that user deposits\n   */\n  function deposit(uint256 amount) external {\n    require(token.transferFrom(msg.sender, address(this), amount), \"User cannot achieve the transfer\");\n\n    User storage user = userInfo[msg.sender];\n    user.balance = user.balance + amount;\n    updateSubscription(msg.sender);\n\n    if(!user.subInfo.status) {\n      subscribe();\n    }\n\n    emit Deposit(msg.sender, amount);\n  }\n}",
  "sourcePath": "/mnt/d/Work/SubscriptionSmartContract/SubscriptionSmartContract/solidity/contracts/SubscriptionContract.sol",
  "compiler": {
    "name": "solc",
    "version": "0.8.3+commit.8d00100c.Emscripten.clang"
  },
  "schemaVersion": "3.3.4",
  "updatedAt": "2021-04-21T15:08:39.469Z",
  "networkType": "ethereum",
  "devdoc": {
    "kind": "dev",
    "methods": {
      "balanceOf(address)": {
        "params": {
          "user": "The address of a user"
        }
      },
      "deposit(uint256)": {
        "params": {
          "amount": "the value that user deposits"
        }
      },
      "hasSubscriptionExpired(address)": {
        "params": {
          "user": "the address of a user"
        }
      },
      "owner()": {
        "details": "Returns the address of the current owner."
      },
      "renounceOwnership()": {
        "details": "Leaves the contract without owner. It will not be possible to call `onlyOwner` functions anymore. Can only be called by the current owner. NOTE: Renouncing ownership will leave the contract without an owner, thereby removing any functionality that is only available to the owner."
      },
      "setSizeOfSubscription(uint256)": {
        "params": {
          "_sizeOfSubscription": "value of the subscription"
        }
      },
      "transferOwnership(address)": {
        "details": "Transfers ownership of the contract to a new account (`newOwner`). Can only be called by the current owner."
      },
      "updateSubscription(address)": {
        "params": {
          "user": "the address of a user"
        }
      }
    },
    "version": 1
  },
  "userdoc": {
    "kind": "user",
    "methods": {
      "balanceOf(address)": {
        "notice": "Returns the balance of a user in the contract"
      },
      "cancelSubscription()": {
        "notice": "Cancels users subscription "
      },
      "deposit(uint256)": {
        "notice": "Updates if subscription has expired, calls subscribe if user is not subscribe and transfer the tokens from user to the contract "
      },
      "hasSubscriptionExpired(address)": {
        "notice": "Checks if subscription has expire"
      },
      "setSizeOfSubscription(uint256)": {
        "notice": "The owner of the contract sets the value of the subscription"
      },
      "subscribe()": {
        "notice": "Subscribes the user that made the call"
      },
      "updateSubscription(address)": {
        "notice": "If subscription has expire and user has money updates his subscription, otherwise makes his subscription status false"
      }
    },
    "version": 1
  }
}