{
  "contractName": "SubscriptionContract",
  "abi": [
    {
      "inputs": [
        {
          "internalType": "uint256",
          "name": "_sizeOfSubscription",
          "type": "uint256"
        },
        {
          "internalType": "address",
          "name": "_vaultAddress",
          "type": "address"
        },
        {
          "internalType": "contract ERC20",
          "name": "_token",
          "type": "address"
        }
      ],
      "stateMutability": "nonpayable",
      "type": "constructor"
    },
    {
      "anonymous": false,
      "inputs": [
        {
          "indexed": false,
          "internalType": "address",
          "name": "user",
          "type": "address"
        },
        {
          "indexed": false,
          "internalType": "uint256",
          "name": "amount",
          "type": "uint256"
        }
      ],
      "name": "Deposit",
      "type": "event"
    },
    {
      "anonymous": false,
      "inputs": [
        {
          "indexed": true,
          "internalType": "address",
          "name": "previousOwner",
          "type": "address"
        },
        {
          "indexed": true,
          "internalType": "address",
          "name": "newOwner",
          "type": "address"
        }
      ],
      "name": "OwnershipTransferred",
      "type": "event"
    },
    {
      "inputs": [],
      "name": "owner",
      "outputs": [
        {
          "internalType": "address",
          "name": "",
          "type": "address"
        }
      ],
      "stateMutability": "view",
      "type": "function",
      "constant": true
    },
    {
      "inputs": [],
      "name": "renounceOwnership",
      "outputs": [],
      "stateMutability": "nonpayable",
      "type": "function"
    },
    {
      "inputs": [
        {
          "internalType": "address",
          "name": "newOwner",
          "type": "address"
        }
      ],
      "name": "transferOwnership",
      "outputs": [],
      "stateMutability": "nonpayable",
      "type": "function"
    },
    {
      "inputs": [
        {
          "internalType": "address",
          "name": "user",
          "type": "address"
        }
      ],
      "name": "balanceOf",
      "outputs": [
        {
          "internalType": "uint256",
          "name": "",
          "type": "uint256"
        }
      ],
      "stateMutability": "view",
      "type": "function",
      "constant": true
    },
    {
      "inputs": [],
      "name": "getSizeOfSubscription",
      "outputs": [
        {
          "internalType": "uint256",
          "name": "",
          "type": "uint256"
        }
      ],
      "stateMutability": "view",
      "type": "function",
      "constant": true
    },
    {
      "inputs": [],
      "name": "getToken",
      "outputs": [
        {
          "internalType": "contract ERC20",
          "name": "",
          "type": "address"
        }
      ],
      "stateMutability": "view",
      "type": "function",
      "constant": true
    },
    {
      "inputs": [],
      "name": "getVaultAddress",
      "outputs": [
        {
          "internalType": "address",
          "name": "",
          "type": "address"
        }
      ],
      "stateMutability": "view",
      "type": "function",
      "constant": true
    },
    {
      "inputs": [
        {
          "internalType": "uint256",
          "name": "_sizeOfSubscription",
          "type": "uint256"
        }
      ],
      "name": "setSizeOfSubscription",
      "outputs": [],
      "stateMutability": "nonpayable",
      "type": "function"
    },
    {
      "inputs": [
        {
          "internalType": "address",
          "name": "user",
          "type": "address"
        }
      ],
      "name": "getIsUserSubscribed",
      "outputs": [
        {
          "internalType": "bool",
          "name": "",
          "type": "bool"
        }
      ],
      "stateMutability": "view",
      "type": "function",
      "constant": true
    },
    {
      "inputs": [
        {
          "internalType": "address",
          "name": "user",
          "type": "address"
        }
      ],
      "name": "getUserSubscriptionDate",
      "outputs": [
        {
          "internalType": "uint256",
          "name": "",
          "type": "uint256"
        }
      ],
      "stateMutability": "view",
      "type": "function",
      "constant": true
    },
    {
      "inputs": [],
      "name": "subscribe",
      "outputs": [],
      "stateMutability": "nonpayable",
      "type": "function"
    },
    {
      "inputs": [
        {
          "internalType": "address",
          "name": "user",
          "type": "address"
        }
      ],
      "name": "checkSubscription",
      "outputs": [],
      "stateMutability": "nonpayable",
      "type": "function"
    },
    {
      "inputs": [],
      "name": "cancelSubscription",
      "outputs": [],
      "stateMutability": "nonpayable",
      "type": "function"
    },
    {
      "inputs": [
        {
          "internalType": "uint256",
          "name": "amount",
          "type": "uint256"
        }
      ],
      "name": "deposit",
      "outputs": [],
      "stateMutability": "nonpayable",
      "type": "function"
    }
  ],
  "bytecode": "0x608060405234801561001057600080fd5b50604051610a4f380380610a4f83398101604081905261002f916100a7565b600080546001600160a01b031916339081178255604051909182917f8be0079c531659141344cd1fd0a4f28419497f9722a3daafe3b4186f6b6457e0908290a350600192909255600380546001600160a01b039283166001600160a01b03199182161790915560048054929093169116179055610101565b6000806000606084860312156100bb578283fd5b8351925060208401516100cd816100e9565b60408501519092506100de816100e9565b809150509250925092565b6001600160a01b03811681146100fe57600080fd5b50565b61093f806101106000396000f3fe608060405234801561001057600080fd5b50600436106100ea5760003560e01c80638da5cb5b1161008c578063b6b55f2511610066578063b6b55f251461020a578063b9a4c25b1461021d578063f2fde38b14610230578063f39ac94f14610243576100ea565b80638da5cb5b146101b25780638f449a05146101c3578063a93877d6146101cb576100ea565b80635576079f116100c85780635576079f1461013657806365cacaa41461017057806370a0823114610181578063715018a6146101aa576100ea565b806321df0da7146100ef57806324e9edb0146101195780634f62647e14610123575b600080fd5b6004546001600160a01b03165b6040516001600160a01b0390911681526020015b60405180910390f35b61012161024b565b005b610121610131366004610829565b610343565b610162610144366004610829565b6001600160a01b031660009081526005602052604090206003015490565b604051908152602001610110565b6003546001600160a01b03166100fc565b61016261018f366004610829565b6001600160a01b031660009081526005602052604090205490565b6101216103ed565b6000546001600160a01b03166100fc565b61012161046a565b6101fa6101d9366004610829565b6001600160a01b031660009081526005602052604090206002015460ff1690565b6040519015158152602001610110565b610121610218366004610877565b6105ad565b61012161022b366004610877565b610710565b61012161023e366004610829565b61073f565b600154610162565b336000908152600560205260409020600281015460ff1615156001141561034057600480546003546001546040516323b872dd60e01b81526001600160a01b0392831694810194909452336024850152604484015216906323b872dd90606401602060405180830381600087803b1580156102c557600080fd5b505af11580156102d9573d6000803e3d6000fd5b505050506040513d601f19601f820116820180604052508101906102fd9190610857565b5060015481600001600082825461031491906108c4565b90915550506001546002805460009061032e9084906108c4565b909155505060028101805460ff191690555b50565b6001600160a01b03811660009081526005602052604090206002015460ff161515600114156103dd576001600160a01b0381166000908152600560205260409020600401544211156103c4576003805460ff60a01b191690556001600160a01b0381166000908152600560205260409020600201805460ff191690556103d8565b6003805460ff60a01b1916600160a01b1790555b610340565b6003805460ff60a01b1916905550565b6000546001600160a01b031633146104205760405162461bcd60e51b81526004016104179061088f565b60405180910390fd5b600080546040516001600160a01b03909116907f8be0079c531659141344cd1fd0a4f28419497f9722a3daafe3b4186f6b6457e0908390a3600080546001600160a01b0319169055565b33600090815260056020526040902060028101805460ff19166001179055426003820181905561049d9062278d006108c4565b6004820155600154600280546000906104b79084906108dc565b9091555050600154815482906000906104d19084906108dc565b90915550506004805460035460015460405163a9059cbb60e01b81526001600160a01b03928316948101949094526024840152169063a9059cbb90604401602060405180830381600087803b15801561052957600080fd5b505af115801561053d573d6000803e3d6000fd5b505050506040513d601f19601f820116820180604052508101906105619190610857565b6103405760405162461bcd60e51b815260206004820181905260248201527f5472616e7366657220746f207661756c742061646472657373206661696c65646044820152606401610417565b33600081815260056020526040908190206004805492516323b872dd60e01b81529081019390935230602484015260448301849052916001600160a01b03909116906323b872dd90606401602060405180830381600087803b15801561061257600080fd5b505af1158015610626573d6000803e3d6000fd5b505050506040513d601f19601f8201168201806040525081019061064a9190610857565b6106965760405162461bcd60e51b815260206004820181905260248201527f557365722063616e6e6f74206163686965766520746865207472616e736665726044820152606401610417565b80546106a39083906108c4565b8155600280548391906000906106ba9084906108c4565b9091555050600281015460ff166106d3576106d361046a565b60408051338152602081018490527fe1fffcc4923d04b559f4d29a8bfc6cda04eb5b0d3c460751c2402c5c5cc9109c910160405180910390a15050565b6000546001600160a01b0316331461073a5760405162461bcd60e51b81526004016104179061088f565b600155565b6000546001600160a01b031633146107695760405162461bcd60e51b81526004016104179061088f565b6001600160a01b0381166107ce5760405162461bcd60e51b815260206004820152602660248201527f4f776e61626c653a206e6577206f776e657220697320746865207a65726f206160448201526564647265737360d01b6064820152608401610417565b600080546040516001600160a01b03808516939216917f8be0079c531659141344cd1fd0a4f28419497f9722a3daafe3b4186f6b6457e091a3600080546001600160a01b0319166001600160a01b0392909216919091179055565b60006020828403121561083a578081fd5b81356001600160a01b0381168114610850578182fd5b9392505050565b600060208284031215610868578081fd5b81518015158114610850578182fd5b600060208284031215610888578081fd5b5035919050565b6020808252818101527f4f776e61626c653a2063616c6c6572206973206e6f7420746865206f776e6572604082015260600190565b600082198211156108d7576108d76108f3565b500190565b6000828210156108ee576108ee6108f3565b500390565b634e487b7160e01b600052601160045260246000fdfea2646970667358221220410a2228bdf7ffaf4aeca0b24b9a772d0531cedcc8f977113efe8dce40144fdd64736f6c63430008030033",
  "immutableReferences": {},
  "source": "pragma solidity ^0.8.3;\n\nimport \"@openzeppelin/contracts/utils/Context.sol\";\nimport \"@openzeppelin/contracts/access/Ownable.sol\";\nimport \"@openzeppelin/contracts/token/ERC20/SafeERC20.sol\";\nimport \"./token/IBEP20.sol\";\nimport \"@openzeppelin/contracts/token/ERC20/ERC20.sol\";\n\ncontract SubscriptionContract is Context, Ownable {\n\n  uint256 private sizeOfSubscription;\n  uint256 private totalSupply;\n  address private vaultAddress;\n  bool private isUserSubscribed;\n  ERC20  token;\n  mapping (address => User) userInfo;\n\n  struct User {\n    uint256 balance;\n    address userAddr;\n    Subscription subInfo;\n  }\n\n  struct Subscription {\n    bool status;\n    uint256 dateOfSubscription;\n    uint256 expiry;\n  }\n\n  constructor(uint256 _sizeOfSubscription, address _vaultAddress, ERC20 _token) {\n    sizeOfSubscription = _sizeOfSubscription;\n    vaultAddress = _vaultAddress;\n    token = _token;\n  }\n\n  function balanceOf(address user) public view virtual returns (uint256) {\n    return userInfo[user].balance;\n  }\n\n  function getSizeOfSubscription() public view virtual  returns (uint256) {\n    return sizeOfSubscription;\n  }\n\n  function getToken() public view virtual  returns (ERC20) {\n    return token;\n  }\n\n  function getVaultAddress() public view virtual  returns (address) {\n    return vaultAddress;\n  }\n\n  function setSizeOfSubscription(uint256 _sizeOfSubscription) public onlyOwner{\n    sizeOfSubscription = _sizeOfSubscription;\n  }\n\n  function getIsUserSubscribed(address user) public view returns (bool) {\n    // return isUserSubscribed;\n    return userInfo[user].subInfo.status;\n  }\n\n  function getUserSubscriptionDate(address user) public view returns (uint256) {\n    return userInfo[user].subInfo.dateOfSubscription;\n  }\n\n  function subscribe() public {\n    User storage user = userInfo[msg.sender];\n    user.subInfo.status = true;\n    user.subInfo.dateOfSubscription = block.timestamp;\n    user.subInfo.expiry = block.timestamp + 30 days;\n    totalSupply -= sizeOfSubscription;\n    user.balance -= sizeOfSubscription;\n    require(token.transfer(vaultAddress, sizeOfSubscription), \"Transfer to vault address failed\");\n  }\n\n  function checkSubscription(address user) public {        \n    if (userInfo[user].subInfo.status == true) {\n      if(userInfo[user].subInfo.expiry < block.timestamp ) {\n        isUserSubscribed = false;\n        userInfo[user].subInfo.status = false;\n      } else {\n        isUserSubscribed = true;\n      }\n    } else {\n      isUserSubscribed = false;\n    }\n  }\n\n  function cancelSubscription() public {\n    User storage user = userInfo[msg.sender];\n\n    if(user.subInfo.status == true) {\n      token.transferFrom(vaultAddress, msg.sender, sizeOfSubscription);\n      user.balance += sizeOfSubscription;\n      totalSupply += sizeOfSubscription;\n      user.subInfo.status = false;\n    }\n  }\n\n  event Deposit(address user, uint256 amount);\n\n\n  function deposit(uint256 amount) external {\n    User storage user = userInfo[msg.sender];\n    \n    require(token.transferFrom(msg.sender, address(this), amount), \"User cannot achieve the transfer\");\n    user.balance = user.balance + amount;\n    totalSupply += amount;\n    if(!user.subInfo.status) {\n      subscribe();\n    }\n    emit Deposit(msg.sender, amount);\n  }\n}",
  "sourcePath": "/mnt/d/Work/SubscriptionSmartContract/SubscriptionSmartContract/solidity/contracts/SubscriptionContract.sol",
  "compiler": {
    "name": "solc",
    "version": "0.8.3+commit.8d00100c.Emscripten.clang"
  },
  "schemaVersion": "3.3.4",
  "updatedAt": "2021-04-20T15:59:14.216Z",
  "networkType": "ethereum",
  "devdoc": {
    "kind": "dev",
    "methods": {
      "owner()": {
        "details": "Returns the address of the current owner."
      },
      "renounceOwnership()": {
        "details": "Leaves the contract without owner. It will not be possible to call `onlyOwner` functions anymore. Can only be called by the current owner. NOTE: Renouncing ownership will leave the contract without an owner, thereby removing any functionality that is only available to the owner."
      },
      "transferOwnership(address)": {
        "details": "Transfers ownership of the contract to a new account (`newOwner`). Can only be called by the current owner."
      }
    },
    "version": 1
  },
  "userdoc": {
    "kind": "user",
    "methods": {},
    "version": 1
  }
}