{
  "contractName": "SubscriptionContract",
  "abi": [
    {
      "inputs": [
        {
          "internalType": "uint256",
          "name": "_sizeOfSubscription",
          "type": "uint256"
        },
        {
          "internalType": "address",
          "name": "_vaultAddress",
          "type": "address"
        },
        {
          "internalType": "contract ERC20",
          "name": "_token",
          "type": "address"
        }
      ],
      "stateMutability": "nonpayable",
      "type": "constructor"
    },
    {
      "anonymous": false,
      "inputs": [
        {
          "indexed": false,
          "internalType": "address",
          "name": "user",
          "type": "address"
        },
        {
          "indexed": false,
          "internalType": "uint256",
          "name": "amount",
          "type": "uint256"
        }
      ],
      "name": "Deposit",
      "type": "event"
    },
    {
      "anonymous": false,
      "inputs": [
        {
          "indexed": true,
          "internalType": "address",
          "name": "previousOwner",
          "type": "address"
        },
        {
          "indexed": true,
          "internalType": "address",
          "name": "newOwner",
          "type": "address"
        }
      ],
      "name": "OwnershipTransferred",
      "type": "event"
    },
    {
      "inputs": [],
      "name": "owner",
      "outputs": [
        {
          "internalType": "address",
          "name": "",
          "type": "address"
        }
      ],
      "stateMutability": "view",
      "type": "function"
    },
    {
      "inputs": [],
      "name": "renounceOwnership",
      "outputs": [],
      "stateMutability": "nonpayable",
      "type": "function"
    },
    {
      "inputs": [
        {
          "internalType": "address",
          "name": "newOwner",
          "type": "address"
        }
      ],
      "name": "transferOwnership",
      "outputs": [],
      "stateMutability": "nonpayable",
      "type": "function"
    },
    {
      "inputs": [
        {
          "internalType": "address",
          "name": "user",
          "type": "address"
        }
      ],
      "name": "balanceOf",
      "outputs": [
        {
          "internalType": "uint256",
          "name": "",
          "type": "uint256"
        }
      ],
      "stateMutability": "view",
      "type": "function"
    },
    {
      "inputs": [],
      "name": "getSizeOfSubscription",
      "outputs": [
        {
          "internalType": "uint256",
          "name": "",
          "type": "uint256"
        }
      ],
      "stateMutability": "view",
      "type": "function"
    },
    {
      "inputs": [],
      "name": "getToken",
      "outputs": [
        {
          "internalType": "contract ERC20",
          "name": "",
          "type": "address"
        }
      ],
      "stateMutability": "view",
      "type": "function"
    },
    {
      "inputs": [],
      "name": "getVaultAddress",
      "outputs": [
        {
          "internalType": "address",
          "name": "",
          "type": "address"
        }
      ],
      "stateMutability": "view",
      "type": "function"
    },
    {
      "inputs": [
        {
          "internalType": "uint256",
          "name": "_sizeOfSubscription",
          "type": "uint256"
        }
      ],
      "name": "setSizeOfSubscription",
      "outputs": [],
      "stateMutability": "nonpayable",
      "type": "function"
    },
    {
      "inputs": [],
      "name": "getIsUserSubscribed",
      "outputs": [
        {
          "internalType": "bool",
          "name": "",
          "type": "bool"
        }
      ],
      "stateMutability": "view",
      "type": "function"
    },
    {
      "inputs": [],
      "name": "subscribe",
      "outputs": [],
      "stateMutability": "nonpayable",
      "type": "function"
    },
    {
      "inputs": [
        {
          "internalType": "address",
          "name": "user",
          "type": "address"
        }
      ],
      "name": "checkSubscription",
      "outputs": [],
      "stateMutability": "nonpayable",
      "type": "function"
    },
    {
      "inputs": [],
      "name": "cancelSubscription",
      "outputs": [],
      "stateMutability": "nonpayable",
      "type": "function"
    },
    {
      "inputs": [
        {
          "internalType": "uint256",
          "name": "amount",
          "type": "uint256"
        }
      ],
      "name": "deposit",
      "outputs": [],
      "stateMutability": "nonpayable",
      "type": "function"
    }
  ],
  "bytecode": "0x608060405234801561001057600080fd5b50604051610a05380380610a0583398101604081905261002f916100a7565b600080546001600160a01b031916339081178255604051909182917f8be0079c531659141344cd1fd0a4f28419497f9722a3daafe3b4186f6b6457e0908290a350600192909255600380546001600160a01b039283166001600160a01b03199182161790915560048054929093169116179055610101565b6000806000606084860312156100bb578283fd5b8351925060208401516100cd816100e9565b60408501519092506100de816100e9565b809150509250925092565b6001600160a01b03811681146100fe57600080fd5b50565b6108f5806101106000396000f3fe608060405234801561001057600080fd5b50600436106100cf5760003560e01c8063715018a61161008c578063b6b55f2511610066578063b6b55f25146101a7578063b9a4c25b146101ba578063f2fde38b146101cd578063f39ac94f146101e0576100cf565b8063715018a6146101865780638da5cb5b1461018e5780638f449a051461019f576100cf565b806321df0da7146100d457806324e9edb0146100fe5780632c66f017146101085780634f62647e1461012b57806365cacaa41461013e57806370a082311461014f575b600080fd5b6004546001600160a01b03165b6040516001600160a01b0390911681526020015b60405180910390f35b6101066101e8565b005b61011b600354600160a01b900460ff1690565b60405190151581526020016100f5565b6101066101393660046107df565b6102e0565b6003546001600160a01b03166100e1565b61017861015d3660046107df565b6001600160a01b031660009081526005602052604090205490565b6040519081526020016100f5565b61010661038a565b6000546001600160a01b03166100e1565b610106610407565b6101066101b536600461082d565b610563565b6101066101c836600461082d565b6106c6565b6101066101db3660046107df565b6106f5565b600154610178565b336000908152600560205260409020600281015460ff161515600114156102dd57600480546003546001546040516323b872dd60e01b81526001600160a01b0392831694810194909452336024850152604484015216906323b872dd90606401602060405180830381600087803b15801561026257600080fd5b505af1158015610276573d6000803e3d6000fd5b505050506040513d601f19601f8201168201806040525081019061029a919061080d565b506001548160000160008282546102b1919061087a565b9091555050600154600280546000906102cb90849061087a565b909155505060028101805460ff191690555b50565b6001600160a01b03811660009081526005602052604090206002015460ff1615156001141561037a576001600160a01b038116600090815260056020526040902060030154421115610361576003805460ff60a01b191690556001600160a01b0381166000908152600560205260409020600201805460ff19169055610375565b6003805460ff60a01b1916600160a01b1790555b6102dd565b6003805460ff60a01b1916905550565b6000546001600160a01b031633146103bd5760405162461bcd60e51b81526004016103b490610845565b60405180910390fd5b600080546040516001600160a01b03909116907f8be0079c531659141344cd1fd0a4f28419497f9722a3daafe3b4186f6b6457e0908390a3600080546001600160a01b0319169055565b3360009081526005602090815260408083208151808301909252928152429181018290526002830180546003850184905560ff191660011790559061044f9062278d0061087a565b600383015560015460028054600090610469908490610892565b909155505060015482548390600090610483908490610892565b90915550506004805460035460015460405163a9059cbb60e01b81526001600160a01b03928316948101949094526024840152169063a9059cbb90604401602060405180830381600087803b1580156104db57600080fd5b505af11580156104ef573d6000803e3d6000fd5b505050506040513d601f19601f82011682018060405250810190610513919061080d565b61055f5760405162461bcd60e51b815260206004820181905260248201527f5472616e7366657220746f207661756c742061646472657373206661696c656460448201526064016103b4565b5050565b33600081815260056020526040908190206004805492516323b872dd60e01b81529081019390935230602484015260448301849052916001600160a01b03909116906323b872dd90606401602060405180830381600087803b1580156105c857600080fd5b505af11580156105dc573d6000803e3d6000fd5b505050506040513d601f19601f82011682018060405250810190610600919061080d565b61064c5760405162461bcd60e51b815260206004820181905260248201527f557365722063616e6e6f74206163686965766520746865207472616e7366657260448201526064016103b4565b805461065990839061087a565b81556002805483919060009061067090849061087a565b9091555050600281015460ff1661068957610689610407565b60408051338152602081018490527fe1fffcc4923d04b559f4d29a8bfc6cda04eb5b0d3c460751c2402c5c5cc9109c910160405180910390a15050565b6000546001600160a01b031633146106f05760405162461bcd60e51b81526004016103b490610845565b600155565b6000546001600160a01b0316331461071f5760405162461bcd60e51b81526004016103b490610845565b6001600160a01b0381166107845760405162461bcd60e51b815260206004820152602660248201527f4f776e61626c653a206e6577206f776e657220697320746865207a65726f206160448201526564647265737360d01b60648201526084016103b4565b600080546040516001600160a01b03808516939216917f8be0079c531659141344cd1fd0a4f28419497f9722a3daafe3b4186f6b6457e091a3600080546001600160a01b0319166001600160a01b0392909216919091179055565b6000602082840312156107f0578081fd5b81356001600160a01b0381168114610806578182fd5b9392505050565b60006020828403121561081e578081fd5b81518015158114610806578182fd5b60006020828403121561083e578081fd5b5035919050565b6020808252818101527f4f776e61626c653a2063616c6c6572206973206e6f7420746865206f776e6572604082015260600190565b6000821982111561088d5761088d6108a9565b500190565b6000828210156108a4576108a46108a9565b500390565b634e487b7160e01b600052601160045260246000fdfea26469706673582212204dc0e9caeb634d807ca519f6859c1ea0596a5ee805481dacf41798f4aa279b4c64736f6c63430008030033",
  "immutableReferences": {},
  "source": "pragma solidity ^0.8.3;\n\nimport \"@openzeppelin/contracts/utils/Context.sol\";\nimport \"@openzeppelin/contracts/access/Ownable.sol\";\nimport \"@openzeppelin/contracts/token/ERC20/SafeERC20.sol\";\nimport \"./token/IBEP20.sol\";\nimport \"@openzeppelin/contracts/token/ERC20/ERC20.sol\";\n\ncontract SubscriptionContract is Context, Ownable {\n\n  uint256 private sizeOfSubscription;\n  uint256 private totalSupply;\n  address private vaultAddress;\n  bool private isUserSubscribed;\n  ERC20  token;\n  mapping (address => User) userInfo;\n\n  struct User {\n    uint256 balance;\n    address userAddr;\n    Subscription subInfo;\n  }\n\n  struct Subscription {\n    bool status;\n    uint256 expiry;\n  }\n\n  constructor(uint256 _sizeOfSubscription, address _vaultAddress, ERC20 _token) {\n    sizeOfSubscription = _sizeOfSubscription;\n    vaultAddress = _vaultAddress;\n    token = _token;\n  }\n\n  function balanceOf(address user) public view virtual returns (uint256) {\n    return userInfo[user].balance;\n  }\n\n  function getSizeOfSubscription() public view virtual  returns (uint256) {\n    return sizeOfSubscription;\n  }\n\n  function getToken() public view virtual  returns (ERC20) {\n    return token;\n  }\n\n  function getVaultAddress() public view virtual  returns (address) {\n    return vaultAddress;\n  }\n\n  function setSizeOfSubscription(uint256 _sizeOfSubscription) public onlyOwner{\n    sizeOfSubscription = _sizeOfSubscription;\n  }\n\n  function getIsUserSubscribed() public view returns (bool) {\n    return isUserSubscribed;\n  }\n\n  function subscribe() public {\n    User storage user = userInfo[msg.sender];\n    Subscription memory subInfo = Subscription(false, block.timestamp);\n    user.subInfo = subInfo;\n    user.subInfo.status = true;\n    user.subInfo.expiry = block.timestamp + 30 days;\n    totalSupply -= sizeOfSubscription;\n    user.balance -= sizeOfSubscription;\n    require(token.transfer(vaultAddress, sizeOfSubscription), \"Transfer to vault address failed\");\n  }\n\n  function checkSubscription(address user) public {        \n    if (userInfo[user].subInfo.status == true) {\n      if(userInfo[user].subInfo.expiry < block.timestamp ) {\n        isUserSubscribed = false;\n        userInfo[user].subInfo.status = false;\n      } else {\n        isUserSubscribed = true;\n      }\n    } else {\n      isUserSubscribed = false;\n    }\n  }\n\n  function cancelSubscription() public {\n    User storage user = userInfo[msg.sender];\n\n    if(user.subInfo.status == true) {\n      token.transferFrom(vaultAddress, msg.sender, sizeOfSubscription);\n      user.balance += sizeOfSubscription;\n      totalSupply += sizeOfSubscription;\n      user.subInfo.status = false;\n    }\n  }\n\n  event Deposit(address user, uint256 amount);\n\n\n  function deposit(uint256 amount) external {\n    User storage user = userInfo[msg.sender];\n    \n    require(token.transferFrom(msg.sender, address(this), amount), \"User cannot achieve the transfer\");\n    user.balance = user.balance + amount;\n    totalSupply += amount;\n    if(!user.subInfo.status) {\n      subscribe();\n    }\n    emit Deposit(msg.sender, amount);\n  }\n}",
  "sourcePath": "/mnt/d/Work/SubscriptionSmartContract/SubscriptionSmartContract/solidity/contracts/SubscriptionContract.sol",
  "compiler": {
    "name": "solc",
    "version": "0.8.3+commit.8d00100c.Emscripten.clang"
  },
  "schemaVersion": "3.3.4",
  "updatedAt": "2021-04-17T22:23:22.594Z",
  "devdoc": {
    "kind": "dev",
    "methods": {
      "owner()": {
        "details": "Returns the address of the current owner."
      },
      "renounceOwnership()": {
        "details": "Leaves the contract without owner. It will not be possible to call `onlyOwner` functions anymore. Can only be called by the current owner. NOTE: Renouncing ownership will leave the contract without an owner, thereby removing any functionality that is only available to the owner."
      },
      "transferOwnership(address)": {
        "details": "Transfers ownership of the contract to a new account (`newOwner`). Can only be called by the current owner."
      }
    },
    "version": 1
  },
  "userdoc": {
    "kind": "user",
    "methods": {},
    "version": 1
  }
}