{
  "contractName": "SubscriptionContract",
  "abi": [
    {
      "inputs": [
        {
          "internalType": "uint256",
          "name": "_sizeOfSubscription",
          "type": "uint256"
        },
        {
          "internalType": "address",
          "name": "_vaultAddress",
          "type": "address"
        },
        {
          "internalType": "contract IBEP20",
          "name": "_token",
          "type": "address"
        }
      ],
      "stateMutability": "nonpayable",
      "type": "constructor"
    },
    {
      "anonymous": false,
      "inputs": [
        {
          "indexed": false,
          "internalType": "address",
          "name": "user",
          "type": "address"
        },
        {
          "indexed": false,
          "internalType": "uint256",
          "name": "amount",
          "type": "uint256"
        }
      ],
      "name": "Deposit",
      "type": "event"
    },
    {
      "anonymous": false,
      "inputs": [
        {
          "indexed": true,
          "internalType": "address",
          "name": "previousOwner",
          "type": "address"
        },
        {
          "indexed": true,
          "internalType": "address",
          "name": "newOwner",
          "type": "address"
        }
      ],
      "name": "OwnershipTransferred",
      "type": "event"
    },
    {
      "inputs": [],
      "name": "owner",
      "outputs": [
        {
          "internalType": "address",
          "name": "",
          "type": "address"
        }
      ],
      "stateMutability": "view",
      "type": "function"
    },
    {
      "inputs": [],
      "name": "renounceOwnership",
      "outputs": [],
      "stateMutability": "nonpayable",
      "type": "function"
    },
    {
      "inputs": [
        {
          "internalType": "address",
          "name": "newOwner",
          "type": "address"
        }
      ],
      "name": "transferOwnership",
      "outputs": [],
      "stateMutability": "nonpayable",
      "type": "function"
    },
    {
      "inputs": [
        {
          "internalType": "address",
          "name": "user",
          "type": "address"
        }
      ],
      "name": "balanceOf",
      "outputs": [
        {
          "internalType": "uint256",
          "name": "",
          "type": "uint256"
        }
      ],
      "stateMutability": "view",
      "type": "function"
    },
    {
      "inputs": [],
      "name": "getSizeOfSubscription",
      "outputs": [
        {
          "internalType": "uint256",
          "name": "",
          "type": "uint256"
        }
      ],
      "stateMutability": "view",
      "type": "function"
    },
    {
      "inputs": [
        {
          "internalType": "uint256",
          "name": "_sizeOfSubscription",
          "type": "uint256"
        }
      ],
      "name": "setSizeOfSubscription",
      "outputs": [],
      "stateMutability": "nonpayable",
      "type": "function"
    },
    {
      "inputs": [],
      "name": "subscribe",
      "outputs": [],
      "stateMutability": "nonpayable",
      "type": "function"
    },
    {
      "inputs": [],
      "name": "cancelSubscription",
      "outputs": [],
      "stateMutability": "nonpayable",
      "type": "function"
    },
    {
      "inputs": [
        {
          "internalType": "uint256",
          "name": "amount",
          "type": "uint256"
        }
      ],
      "name": "deposit",
      "outputs": [],
      "stateMutability": "nonpayable",
      "type": "function"
    }
  ],
  "bytecode": "0x608060405234801561001057600080fd5b50604051610a92380380610a9283398101604081905261002f916100a7565b600080546001600160a01b031916339081178255604051909182917f8be0079c531659141344cd1fd0a4f28419497f9722a3daafe3b4186f6b6457e0908290a350600192909255600380546001600160a01b039283166001600160a01b03199182161790915560048054929093169116179055610101565b6000806000606084860312156100bb578283fd5b8351925060208401516100cd816100e9565b60408501519092506100de816100e9565b809150509250925092565b6001600160a01b03811681146100fe57600080fd5b50565b610982806101106000396000f3fe608060405234801561001057600080fd5b50600436106100935760003560e01c80638f449a05116100665780638f449a05146100f3578063b6b55f25146100fb578063b9a4c25b1461010e578063f2fde38b14610121578063f39ac94f1461013457610093565b806324e9edb01461009857806370a08231146100a2578063715018a6146100d05780638da5cb5b146100d8575b600080fd5b6100a061013c565b005b6100bd6100b03660046107f8565b6001600160a01b03163190565b6040519081526020015b60405180910390f35b6100a06101c1565b6000546040516001600160a01b0390911681526020016100c7565b6100a061023e565b6100a061010936600461083f565b6102c3565b6100a061011c36600461083f565b6103ed565b6100a061012f3660046107f8565b61041c565b6001546100bd565b336000908152600560205260409020600281015460ff161515600114156101be5760015460045461017c916001600160a01b039091169030903390610506565b60015481600001600082825461019291906108f3565b9091555050600154600280546000906101ac9084906108f3565b909155505060028101805460ff191690555b50565b6000546001600160a01b031633146101f45760405162461bcd60e51b81526004016101eb906108a6565b60405180910390fd5b600080546040516001600160a01b03909116907f8be0079c531659141344cd1fd0a4f28419497f9722a3daafe3b4186f6b6457e0908390a3600080546001600160a01b0319169055565b33600090815260056020526040902060028101805460ff191660011790556102694262278d006108db565b6003820155600154600280546000906102839084906108f3565b90915550506001548154829060009061029d9084906108f3565b90915550506003546001546004546101be926001600160a01b0391821692911690610577565b33600081815260056020526040908190206004805492516323b872dd60e01b81529081019390935230602484015260448301849052916001600160a01b03909116906323b872dd90606401602060405180830381600087803b15801561032857600080fd5b505af115801561033c573d6000803e3d6000fd5b505050506040513d601f19601f82011682018060405250810190610360919061081f565b6103ac5760405162461bcd60e51b815260206004820181905260248201527f557365722063616e6e6f74206163686965766520746865207472616e7366657260448201526064016101eb565b80546103b99083906108db565b8155600280548391906000906103d09084906108db565b9091555050600281015460ff166103e9576103e961023e565b5050565b6000546001600160a01b031633146104175760405162461bcd60e51b81526004016101eb906108a6565b600155565b6000546001600160a01b031633146104465760405162461bcd60e51b81526004016101eb906108a6565b6001600160a01b0381166104ab5760405162461bcd60e51b815260206004820152602660248201527f4f776e61626c653a206e6577206f776e657220697320746865207a65726f206160448201526564647265737360d01b60648201526084016101eb565b600080546040516001600160a01b03808516939216917f8be0079c531659141344cd1fd0a4f28419497f9722a3daafe3b4186f6b6457e091a3600080546001600160a01b0319166001600160a01b0392909216919091179055565b6040516001600160a01b03808516602483015283166044820152606481018290526105719085906323b872dd60e01b906084015b60408051601f198184030181529190526020810180516001600160e01b03166001600160e01b0319909316929092179091526105ac565b50505050565b6040516001600160a01b0383166024820152604481018290526105a790849063a9059cbb60e01b9060640161053a565b505050565b6000610601826040518060400160405280602081526020017f5361666545524332303a206c6f772d6c6576656c2063616c6c206661696c6564815250856001600160a01b031661067e9092919063ffffffff16565b8051909150156105a7578080602001905181019061061f919061081f565b6105a75760405162461bcd60e51b815260206004820152602a60248201527f5361666545524332303a204552433230206f7065726174696f6e20646964206e6044820152691bdd081cdd58d8d9595960b21b60648201526084016101eb565b606061068d8484600085610697565b90505b9392505050565b6060824710156106f85760405162461bcd60e51b815260206004820152602660248201527f416464726573733a20696e73756666696369656e742062616c616e636520666f6044820152651c8818d85b1b60d21b60648201526084016101eb565b843b6107465760405162461bcd60e51b815260206004820152601d60248201527f416464726573733a2063616c6c20746f206e6f6e2d636f6e747261637400000060448201526064016101eb565b600080866001600160a01b031685876040516107629190610857565b60006040518083038185875af1925050503d806000811461079f576040519150601f19603f3d011682016040523d82523d6000602084013e6107a4565b606091505b50915091506107b48282866107bf565b979650505050505050565b606083156107ce575081610690565b8251156107de5782518084602001fd5b8160405162461bcd60e51b81526004016101eb9190610873565b600060208284031215610809578081fd5b81356001600160a01b0381168114610690578182fd5b600060208284031215610830578081fd5b81518015158114610690578182fd5b600060208284031215610850578081fd5b5035919050565b6000825161086981846020870161090a565b9190910192915050565b600060208252825180602084015261089281604085016020870161090a565b601f01601f19169190910160400192915050565b6020808252818101527f4f776e61626c653a2063616c6c6572206973206e6f7420746865206f776e6572604082015260600190565b600082198211156108ee576108ee610936565b500190565b60008282101561090557610905610936565b500390565b60005b8381101561092557818101518382015260200161090d565b838111156105715750506000910152565b634e487b7160e01b600052601160045260246000fdfea2646970667358221220565c765edc38a4d1efbcc5840b365906d82fd62a1e39847ae6aa81e39d02383264736f6c63430008030033",
  "immutableReferences": {},
  "source": "pragma solidity ^0.8.3;\n\nimport \"@openzeppelin/contracts/utils/Context.sol\";\nimport \"@openzeppelin/contracts/access/Ownable.sol\";\nimport \"@openzeppelin/contracts/token/ERC20/SafeERC20.sol\";\nimport \"./token/IBEP20.sol\";\n\ncontract SubscriptionContract is Context, Ownable {\n  using SafeERC20 for IBEP20;\n\n  uint256 private sizeOfSubscription;\n  uint256 private totalSupply;\n  address private vaultAddress;\n  IBEP20 token;\n  mapping (address => User) userInfo;\n\n  struct User {\n    uint256 balance;\n    address userAddr;\n    Subscription subInfo;\n  }\n\n  struct Subscription {\n    bool status;\n    uint256 expiry;\n  }\n\n  constructor(uint256 _sizeOfSubscription, address _vaultAddress, IBEP20 _token) {\n    sizeOfSubscription = _sizeOfSubscription;\n    vaultAddress = _vaultAddress;\n    token = _token;\n  }\n\n  function balanceOf(address user) public view virtual  returns (uint256) {\n    return user.balance;\n  }\n\n  function getSizeOfSubscription() public view virtual  returns (uint256) {\n    return sizeOfSubscription;\n  }\n\n  function setSizeOfSubscription(uint256 _sizeOfSubscription) public onlyOwner{\n    sizeOfSubscription = _sizeOfSubscription;\n  }\n\n  function subscribe() public {\n    User storage user = userInfo[msg.sender];\n\n    user.subInfo.status = true;    \n    user.subInfo.expiry = block.timestamp + 30 days;\n    totalSupply -= sizeOfSubscription;\n    user.balance -= sizeOfSubscription;\n    token.safeTransfer(vaultAddress, sizeOfSubscription);\n  }\n\n  function checkSubscription(User storage user) internal returns(bool status){        \n    if(user.subInfo.status != true) {  \n      // if the user is not subscribed          \n      return false;        \n    }        \n    if (block.timestamp >= user.subInfo.expiry) {   \n      // if the subscription has expired  \n      // update status to false        \n      user.subInfo.status = false;            \n      return false;        \n    } else {            \n      return true;        \n    }    \n  }\n\n  function cancelSubscription() public {\n    User storage user = userInfo[msg.sender];\n\n    if(user.subInfo.status == true) {\n      token.safeTransferFrom(address(this), msg.sender, sizeOfSubscription);\n      user.balance -= sizeOfSubscription;\n      totalSupply -= sizeOfSubscription;\n      user.subInfo.status = false;\n    }\n  }\n\n  event Deposit(address user, uint256 amount);\n\n\n  function deposit(uint256 amount) external {\n    User storage user = userInfo[msg.sender];\n    \n    require(token.transferFrom(msg.sender, address(this), amount), \"User cannot achieve the transfer\");\n    user.balance = user.balance + amount;\n    totalSupply += amount;\n    if(!user.subInfo.status) {\n      subscribe();\n    }\n  }\n}",
  "sourcePath": "/mnt/d/Work/SubscriptionSmartContract/SubscriptionSmartContract/contracts/SubscriptionContract.sol",
  "compiler": {
    "name": "solc",
    "version": "0.8.3+commit.8d00100c.Emscripten.clang"
  },
  "schemaVersion": "3.3.4",
  "updatedAt": "2021-04-14T18:22:55.011Z",
  "devdoc": {
    "kind": "dev",
    "methods": {
      "owner()": {
        "details": "Returns the address of the current owner."
      },
      "renounceOwnership()": {
        "details": "Leaves the contract without owner. It will not be possible to call `onlyOwner` functions anymore. Can only be called by the current owner. NOTE: Renouncing ownership will leave the contract without an owner, thereby removing any functionality that is only available to the owner."
      },
      "transferOwnership(address)": {
        "details": "Transfers ownership of the contract to a new account (`newOwner`). Can only be called by the current owner."
      }
    },
    "version": 1
  },
  "userdoc": {
    "kind": "user",
    "methods": {},
    "version": 1
  }
}