{
  "contractName": "SubscriptionContract",
  "abi": [
    {
      "inputs": [
        {
          "internalType": "uint256",
          "name": "_sizeOfSubscription",
          "type": "uint256"
        },
        {
          "internalType": "address",
          "name": "_vaultAddress",
          "type": "address"
        },
        {
          "internalType": "contract ERC20",
          "name": "_token",
          "type": "address"
        }
      ],
      "stateMutability": "nonpayable",
      "type": "constructor"
    },
    {
      "anonymous": false,
      "inputs": [
        {
          "indexed": false,
          "internalType": "address",
          "name": "user",
          "type": "address"
        },
        {
          "indexed": false,
          "internalType": "uint256",
          "name": "amount",
          "type": "uint256"
        }
      ],
      "name": "Deposit",
      "type": "event"
    },
    {
      "anonymous": false,
      "inputs": [
        {
          "indexed": true,
          "internalType": "address",
          "name": "previousOwner",
          "type": "address"
        },
        {
          "indexed": true,
          "internalType": "address",
          "name": "newOwner",
          "type": "address"
        }
      ],
      "name": "OwnershipTransferred",
      "type": "event"
    },
    {
      "inputs": [],
      "name": "owner",
      "outputs": [
        {
          "internalType": "address",
          "name": "",
          "type": "address"
        }
      ],
      "stateMutability": "view",
      "type": "function"
    },
    {
      "inputs": [],
      "name": "renounceOwnership",
      "outputs": [],
      "stateMutability": "nonpayable",
      "type": "function"
    },
    {
      "inputs": [
        {
          "internalType": "address",
          "name": "newOwner",
          "type": "address"
        }
      ],
      "name": "transferOwnership",
      "outputs": [],
      "stateMutability": "nonpayable",
      "type": "function"
    },
    {
      "inputs": [
        {
          "internalType": "address",
          "name": "user",
          "type": "address"
        }
      ],
      "name": "balanceOf",
      "outputs": [
        {
          "internalType": "uint256",
          "name": "",
          "type": "uint256"
        }
      ],
      "stateMutability": "view",
      "type": "function"
    },
    {
      "inputs": [],
      "name": "getSizeOfSubscription",
      "outputs": [
        {
          "internalType": "uint256",
          "name": "",
          "type": "uint256"
        }
      ],
      "stateMutability": "view",
      "type": "function"
    },
    {
      "inputs": [
        {
          "internalType": "uint256",
          "name": "_sizeOfSubscription",
          "type": "uint256"
        }
      ],
      "name": "setSizeOfSubscription",
      "outputs": [],
      "stateMutability": "nonpayable",
      "type": "function"
    },
    {
      "inputs": [],
      "name": "subscribe",
      "outputs": [],
      "stateMutability": "nonpayable",
      "type": "function"
    },
    {
      "inputs": [],
      "name": "cancelSubscription",
      "outputs": [],
      "stateMutability": "nonpayable",
      "type": "function"
    },
    {
      "inputs": [
        {
          "internalType": "uint256",
          "name": "amount",
          "type": "uint256"
        }
      ],
      "name": "deposit",
      "outputs": [],
      "stateMutability": "nonpayable",
      "type": "function"
    }
  ],
  "bytecode": "0x608060405234801561001057600080fd5b5060405161080438038061080483398101604081905261002f916100a7565b600080546001600160a01b031916339081178255604051909182917f8be0079c531659141344cd1fd0a4f28419497f9722a3daafe3b4186f6b6457e0908290a350600192909255600380546001600160a01b039283166001600160a01b03199182161790915560048054929093169116179055610101565b6000806000606084860312156100bb578283fd5b8351925060208401516100cd816100e9565b60408501519092506100de816100e9565b809150509250925092565b6001600160a01b03811681146100fe57600080fd5b50565b6106f4806101106000396000f3fe608060405234801561001057600080fd5b50600436106100935760003560e01c80638f449a05116100665780638f449a05146100f3578063b6b55f25146100fb578063b9a4c25b1461010e578063f2fde38b14610121578063f39ac94f1461013457610093565b806324e9edb01461009857806370a08231146100a2578063715018a6146100d05780638da5cb5b146100d8575b600080fd5b6100a061013c565b005b6100bd6100b03660046105de565b6001600160a01b03163190565b6040519081526020015b60405180910390f35b6100a061022f565b6000546040516001600160a01b0390911681526020016100c7565b6100a06102ac565b6100a061010936600461062c565b61039f565b6100a061011c36600461062c565b6104c5565b6100a061012f3660046105de565b6104f4565b6001546100bd565b336000908152600560205260409020600281015460ff1615156001141561022c57600480546001546040516323b872dd60e01b8152309381019390935233602484015260448301526001600160a01b0316906323b872dd90606401602060405180830381600087803b1580156101b157600080fd5b505af11580156101c5573d6000803e3d6000fd5b505050506040513d601f19601f820116820180604052508101906101e9919061060c565b506001548160000160008282546102009190610691565b90915550506001546002805460009061021a908490610691565b909155505060028101805460ff191690555b50565b6000546001600160a01b031633146102625760405162461bcd60e51b815260040161025990610644565b60405180910390fd5b600080546040516001600160a01b03909116907f8be0079c531659141344cd1fd0a4f28419497f9722a3daafe3b4186f6b6457e0908390a3600080546001600160a01b0319169055565b33600090815260056020526040902060028101805460ff191660011790556102d74262278d00610679565b6003820155600154600280546000906102f1908490610691565b90915550506001548154829060009061030b908490610691565b90915550506004805460035460015460405163a9059cbb60e01b81526001600160a01b03928316948101949094526024840152169063a9059cbb90604401602060405180830381600087803b15801561036357600080fd5b505af1158015610377573d6000803e3d6000fd5b505050506040513d601f19601f8201168201806040525081019061039b919061060c565b5050565b33600081815260056020526040908190206004805492516323b872dd60e01b81529081019390935230602484015260448301849052916001600160a01b03909116906323b872dd90606401602060405180830381600087803b15801561040457600080fd5b505af1158015610418573d6000803e3d6000fd5b505050506040513d601f19601f8201168201806040525081019061043c919061060c565b6104885760405162461bcd60e51b815260206004820181905260248201527f557365722063616e6e6f74206163686965766520746865207472616e736665726044820152606401610259565b8054610495908390610679565b8155600280548391906000906104ac908490610679565b9091555050600281015460ff1661039b5761039b6102ac565b6000546001600160a01b031633146104ef5760405162461bcd60e51b815260040161025990610644565b600155565b6000546001600160a01b0316331461051e5760405162461bcd60e51b815260040161025990610644565b6001600160a01b0381166105835760405162461bcd60e51b815260206004820152602660248201527f4f776e61626c653a206e6577206f776e657220697320746865207a65726f206160448201526564647265737360d01b6064820152608401610259565b600080546040516001600160a01b03808516939216917f8be0079c531659141344cd1fd0a4f28419497f9722a3daafe3b4186f6b6457e091a3600080546001600160a01b0319166001600160a01b0392909216919091179055565b6000602082840312156105ef578081fd5b81356001600160a01b0381168114610605578182fd5b9392505050565b60006020828403121561061d578081fd5b81518015158114610605578182fd5b60006020828403121561063d578081fd5b5035919050565b6020808252818101527f4f776e61626c653a2063616c6c6572206973206e6f7420746865206f776e6572604082015260600190565b6000821982111561068c5761068c6106a8565b500190565b6000828210156106a3576106a36106a8565b500390565b634e487b7160e01b600052601160045260246000fdfea2646970667358221220baa0e923b38e091ed165081871bf95b0910309e63b435bf99e861ddaab948dfe64736f6c63430008030033",
  "immutableReferences": {},
  "source": "pragma solidity ^0.8.3;\n\nimport \"@openzeppelin/contracts/utils/Context.sol\";\nimport \"@openzeppelin/contracts/access/Ownable.sol\";\nimport \"@openzeppelin/contracts/token/ERC20/SafeERC20.sol\";\nimport \"./token/IBEP20.sol\";\nimport \"@openzeppelin/contracts/token/ERC20/ERC20.sol\";\n\ncontract SubscriptionContract is Context, Ownable {\n  // using SafeERC20 for IBEP20;\n\n  uint256 private sizeOfSubscription;\n  uint256 private totalSupply;\n  address private vaultAddress;\n  ERC20  token;\n  mapping (address => User) userInfo;\n\n  struct User {\n    uint256 balance;\n    address userAddr;\n    Subscription subInfo;\n  }\n\n  struct Subscription {\n    bool status;\n    uint256 expiry;\n  }\n\n  constructor(uint256 _sizeOfSubscription, address _vaultAddress, ERC20 _token) {\n    sizeOfSubscription = _sizeOfSubscription;\n    vaultAddress = _vaultAddress;\n    token = _token;\n  }\n\n  function balanceOf(address user) public view virtual  returns (uint256) {\n    return user.balance;\n  }\n\n  function getSizeOfSubscription() public view virtual  returns (uint256) {\n    return sizeOfSubscription;\n  }\n\n  function setSizeOfSubscription(uint256 _sizeOfSubscription) public onlyOwner{\n    sizeOfSubscription = _sizeOfSubscription;\n  }\n\n  function subscribe() public {\n    User storage user = userInfo[msg.sender];\n\n    user.subInfo.status = true;    \n    user.subInfo.expiry = block.timestamp + 30 days;\n    totalSupply -= sizeOfSubscription;\n    user.balance -= sizeOfSubscription;\n    token.transfer(vaultAddress, sizeOfSubscription);\n  }\n\n  function checkSubscription(User storage user) internal returns(bool status){        \n    if(user.subInfo.status != true) {  \n      // if the user is not subscribed          \n      return false;        \n    }        \n    if (block.timestamp >= user.subInfo.expiry) {   \n      // if the subscription has expired  \n      // update status to false        \n      user.subInfo.status = false;            \n      return false;        \n    } else {            \n      return true;        \n    }    \n  }\n\n  function cancelSubscription() public {\n    User storage user = userInfo[msg.sender];\n\n    if(user.subInfo.status == true) {\n      token.transferFrom(address(this), msg.sender, sizeOfSubscription);\n      user.balance -= sizeOfSubscription;\n      totalSupply -= sizeOfSubscription;\n      user.subInfo.status = false;\n    }\n  }\n\n  event Deposit(address user, uint256 amount);\n\n\n  function deposit(uint256 amount) external {\n    User storage user = userInfo[msg.sender];\n    \n    require(token.transferFrom(msg.sender, address(this), amount), \"User cannot achieve the transfer\");\n    user.balance = user.balance + amount;\n    totalSupply += amount;\n    if(!user.subInfo.status) {\n      subscribe();\n    }\n  }\n}",
  "sourcePath": "/mnt/d/Work/SubscriptionSmartContract/SubscriptionSmartContract/contracts/SubscriptionContract.sol",
  "compiler": {
    "name": "solc",
    "version": "0.8.3+commit.8d00100c.Emscripten.clang"
  },
  "schemaVersion": "3.3.4",
  "updatedAt": "2021-04-15T07:53:14.972Z",
  "devdoc": {
    "kind": "dev",
    "methods": {
      "owner()": {
        "details": "Returns the address of the current owner."
      },
      "renounceOwnership()": {
        "details": "Leaves the contract without owner. It will not be possible to call `onlyOwner` functions anymore. Can only be called by the current owner. NOTE: Renouncing ownership will leave the contract without an owner, thereby removing any functionality that is only available to the owner."
      },
      "transferOwnership(address)": {
        "details": "Transfers ownership of the contract to a new account (`newOwner`). Can only be called by the current owner."
      }
    },
    "version": 1
  },
  "userdoc": {
    "kind": "user",
    "methods": {},
    "version": 1
  }
}